{
  "_format": "hh-sol-artifact-1",
  "contractName": "SkulltoonsGenesis",
  "sourceName": "contracts/SkulltoonsGenesis.sol",
  "abi": [
    {
      "inputs": [
        {
          "internalType": "string",
          "name": "_baseTokenURI",
          "type": "string"
        },
        {
          "internalType": "string",
          "name": "_nonRevealedURI",
          "type": "string"
        },
        {
          "internalType": "address",
          "name": "_requiredOwnContract",
          "type": "address"
        },
        {
          "internalType": "bytes32",
          "name": "_whiteListRoot",
          "type": "bytes32"
        }
      ],
      "stateMutability": "nonpayable",
      "type": "constructor"
    },
    {
      "inputs": [],
      "name": "ApprovalCallerNotOwnerNorApproved",
      "type": "error"
    },
    {
      "inputs": [],
      "name": "ApprovalQueryForNonexistentToken",
      "type": "error"
    },
    {
      "inputs": [],
      "name": "ApprovalToCurrentOwner",
      "type": "error"
    },
    {
      "inputs": [],
      "name": "ApproveToCaller",
      "type": "error"
    },
    {
      "inputs": [],
      "name": "BalanceQueryForZeroAddress",
      "type": "error"
    },
    {
      "inputs": [],
      "name": "MintToZeroAddress",
      "type": "error"
    },
    {
      "inputs": [],
      "name": "MintZeroQuantity",
      "type": "error"
    },
    {
      "inputs": [],
      "name": "OwnerQueryForNonexistentToken",
      "type": "error"
    },
    {
      "inputs": [],
      "name": "TransferCallerNotOwnerNorApproved",
      "type": "error"
    },
    {
      "inputs": [],
      "name": "TransferFromIncorrectOwner",
      "type": "error"
    },
    {
      "inputs": [],
      "name": "TransferToNonERC721ReceiverImplementer",
      "type": "error"
    },
    {
      "inputs": [],
      "name": "TransferToZeroAddress",
      "type": "error"
    },
    {
      "inputs": [],
      "name": "URIQueryForNonexistentToken",
      "type": "error"
    },
    {
      "anonymous": false,
      "inputs": [
        {
          "indexed": true,
          "internalType": "address",
          "name": "owner",
          "type": "address"
        },
        {
          "indexed": true,
          "internalType": "address",
          "name": "approved",
          "type": "address"
        },
        {
          "indexed": true,
          "internalType": "uint256",
          "name": "tokenId",
          "type": "uint256"
        }
      ],
      "name": "Approval",
      "type": "event"
    },
    {
      "anonymous": false,
      "inputs": [
        {
          "indexed": true,
          "internalType": "address",
          "name": "owner",
          "type": "address"
        },
        {
          "indexed": true,
          "internalType": "address",
          "name": "operator",
          "type": "address"
        },
        {
          "indexed": false,
          "internalType": "bool",
          "name": "approved",
          "type": "bool"
        }
      ],
      "name": "ApprovalForAll",
      "type": "event"
    },
    {
      "anonymous": false,
      "inputs": [
        {
          "indexed": true,
          "internalType": "address",
          "name": "previousOwner",
          "type": "address"
        },
        {
          "indexed": true,
          "internalType": "address",
          "name": "newOwner",
          "type": "address"
        }
      ],
      "name": "OwnershipTransferred",
      "type": "event"
    },
    {
      "anonymous": false,
      "inputs": [
        {
          "indexed": true,
          "internalType": "address",
          "name": "from",
          "type": "address"
        },
        {
          "indexed": true,
          "internalType": "address",
          "name": "to",
          "type": "address"
        },
        {
          "indexed": true,
          "internalType": "uint256",
          "name": "tokenId",
          "type": "uint256"
        }
      ],
      "name": "Transfer",
      "type": "event"
    },
    {
      "inputs": [],
      "name": "MAX_PUBLIC_PER_WALLET",
      "outputs": [
        {
          "internalType": "uint256",
          "name": "",
          "type": "uint256"
        }
      ],
      "stateMutability": "view",
      "type": "function"
    },
    {
      "inputs": [],
      "name": "MAX_SUPPLY",
      "outputs": [
        {
          "internalType": "uint256",
          "name": "",
          "type": "uint256"
        }
      ],
      "stateMutability": "view",
      "type": "function"
    },
    {
      "inputs": [],
      "name": "MAX_TOKEN_HOLDERS_MINT_PER_WALLET",
      "outputs": [
        {
          "internalType": "uint256",
          "name": "",
          "type": "uint256"
        }
      ],
      "stateMutability": "view",
      "type": "function"
    },
    {
      "inputs": [],
      "name": "ROYALTY_PERCENT",
      "outputs": [
        {
          "internalType": "uint256",
          "name": "",
          "type": "uint256"
        }
      ],
      "stateMutability": "view",
      "type": "function"
    },
    {
      "inputs": [
        {
          "internalType": "address",
          "name": "to",
          "type": "address"
        },
        {
          "internalType": "uint256",
          "name": "tokenId",
          "type": "uint256"
        }
      ],
      "name": "approve",
      "outputs": [],
      "stateMutability": "nonpayable",
      "type": "function"
    },
    {
      "inputs": [
        {
          "internalType": "address",
          "name": "owner",
          "type": "address"
        }
      ],
      "name": "balanceOf",
      "outputs": [
        {
          "internalType": "uint256",
          "name": "",
          "type": "uint256"
        }
      ],
      "stateMutability": "view",
      "type": "function"
    },
    {
      "inputs": [],
      "name": "baseTokenURI",
      "outputs": [
        {
          "internalType": "string",
          "name": "",
          "type": "string"
        }
      ],
      "stateMutability": "view",
      "type": "function"
    },
    {
      "inputs": [
        {
          "internalType": "contract IERC721A",
          "name": "_token",
          "type": "address"
        },
        {
          "internalType": "address[]",
          "name": "_to",
          "type": "address[]"
        },
        {
          "internalType": "uint256[]",
          "name": "_id",
          "type": "uint256[]"
        }
      ],
      "name": "bulkAirDrop",
      "outputs": [],
      "stateMutability": "nonpayable",
      "type": "function"
    },
    {
      "inputs": [
        {
          "internalType": "uint256",
          "name": "tokenId",
          "type": "uint256"
        }
      ],
      "name": "getApproved",
      "outputs": [
        {
          "internalType": "address",
          "name": "",
          "type": "address"
        }
      ],
      "stateMutability": "view",
      "type": "function"
    },
    {
      "inputs": [],
      "name": "getCurrentPhase",
      "outputs": [
        {
          "internalType": "string",
          "name": "",
          "type": "string"
        }
      ],
      "stateMutability": "view",
      "type": "function"
    },
    {
      "inputs": [
        {
          "internalType": "address",
          "name": "owner",
          "type": "address"
        },
        {
          "internalType": "address",
          "name": "operator",
          "type": "address"
        }
      ],
      "name": "isApprovedForAll",
      "outputs": [
        {
          "internalType": "bool",
          "name": "",
          "type": "bool"
        }
      ],
      "stateMutability": "view",
      "type": "function"
    },
    {
      "inputs": [],
      "name": "name",
      "outputs": [
        {
          "internalType": "string",
          "name": "",
          "type": "string"
        }
      ],
      "stateMutability": "view",
      "type": "function"
    },
    {
      "inputs": [],
      "name": "nonRevealedURI",
      "outputs": [
        {
          "internalType": "string",
          "name": "",
          "type": "string"
        }
      ],
      "stateMutability": "view",
      "type": "function"
    },
    {
      "inputs": [
        {
          "internalType": "address",
          "name": "wallet",
          "type": "address"
        }
      ],
      "name": "numberMinted",
      "outputs": [
        {
          "internalType": "uint256",
          "name": "",
          "type": "uint256"
        }
      ],
      "stateMutability": "view",
      "type": "function"
    },
    {
      "inputs": [],
      "name": "owner",
      "outputs": [
        {
          "internalType": "address",
          "name": "",
          "type": "address"
        }
      ],
      "stateMutability": "view",
      "type": "function"
    },
    {
      "inputs": [
        {
          "internalType": "uint256",
          "name": "tokenId",
          "type": "uint256"
        }
      ],
      "name": "ownerOf",
      "outputs": [
        {
          "internalType": "address",
          "name": "",
          "type": "address"
        }
      ],
      "stateMutability": "view",
      "type": "function"
    },
    {
      "inputs": [
        {
          "internalType": "bytes32[]",
          "name": "_wlProof",
          "type": "bytes32[]"
        }
      ],
      "name": "preSaleMint",
      "outputs": [],
      "stateMutability": "payable",
      "type": "function"
    },
    {
      "inputs": [],
      "name": "publicMint",
      "outputs": [],
      "stateMutability": "payable",
      "type": "function"
    },
    {
      "inputs": [],
      "name": "renounceOwnership",
      "outputs": [],
      "stateMutability": "nonpayable",
      "type": "function"
    },
    {
      "inputs": [],
      "name": "requiredOwnContract",
      "outputs": [
        {
          "internalType": "address",
          "name": "",
          "type": "address"
        }
      ],
      "stateMutability": "view",
      "type": "function"
    },
    {
      "inputs": [
        {
          "internalType": "uint8",
          "name": "quant",
          "type": "uint8"
        }
      ],
      "name": "reserve",
      "outputs": [],
      "stateMutability": "nonpayable",
      "type": "function"
    },
    {
      "inputs": [],
      "name": "revealed",
      "outputs": [
        {
          "internalType": "bool",
          "name": "",
          "type": "bool"
        }
      ],
      "stateMutability": "view",
      "type": "function"
    },
    {
      "inputs": [],
      "name": "royaltyAddress",
      "outputs": [
        {
          "internalType": "address",
          "name": "",
          "type": "address"
        }
      ],
      "stateMutability": "view",
      "type": "function"
    },
    {
      "inputs": [
        {
          "internalType": "uint256",
          "name": "tokenId",
          "type": "uint256"
        },
        {
          "internalType": "uint256",
          "name": "salePrice",
          "type": "uint256"
        }
      ],
      "name": "royaltyInfo",
      "outputs": [
        {
          "internalType": "address",
          "name": "",
          "type": "address"
        },
        {
          "internalType": "uint256",
          "name": "royaltyAmount",
          "type": "uint256"
        }
      ],
      "stateMutability": "view",
      "type": "function"
    },
    {
      "inputs": [
        {
          "internalType": "address",
          "name": "from",
          "type": "address"
        },
        {
          "internalType": "address",
          "name": "to",
          "type": "address"
        },
        {
          "internalType": "uint256",
          "name": "tokenId",
          "type": "uint256"
        }
      ],
      "name": "safeTransferFrom",
      "outputs": [],
      "stateMutability": "nonpayable",
      "type": "function"
    },
    {
      "inputs": [
        {
          "internalType": "address",
          "name": "from",
          "type": "address"
        },
        {
          "internalType": "address",
          "name": "to",
          "type": "address"
        },
        {
          "internalType": "uint256",
          "name": "tokenId",
          "type": "uint256"
        },
        {
          "internalType": "bytes",
          "name": "_data",
          "type": "bytes"
        }
      ],
      "name": "safeTransferFrom",
      "outputs": [],
      "stateMutability": "nonpayable",
      "type": "function"
    },
    {
      "inputs": [
        {
          "internalType": "address",
          "name": "operator",
          "type": "address"
        },
        {
          "internalType": "bool",
          "name": "approved",
          "type": "bool"
        }
      ],
      "name": "setApprovalForAll",
      "outputs": [],
      "stateMutability": "nonpayable",
      "type": "function"
    },
    {
      "inputs": [
        {
          "internalType": "string",
          "name": "_baseTokenURI",
          "type": "string"
        }
      ],
      "name": "setBaseTokenURI",
      "outputs": [],
      "stateMutability": "nonpayable",
      "type": "function"
    },
    {
      "inputs": [
        {
          "internalType": "enum SkulltoonsGenesis.Phase",
          "name": "_phase",
          "type": "uint8"
        }
      ],
      "name": "setCurrentPhase",
      "outputs": [],
      "stateMutability": "nonpayable",
      "type": "function"
    },
    {
      "inputs": [
        {
          "internalType": "string",
          "name": "_nonRevealedURI",
          "type": "string"
        }
      ],
      "name": "setNonRevealedTokenURI",
      "outputs": [],
      "stateMutability": "nonpayable",
      "type": "function"
    },
    {
      "inputs": [
        {
          "internalType": "uint8",
          "name": "amount",
          "type": "uint8"
        }
      ],
      "name": "setPublicMintAmount",
      "outputs": [],
      "stateMutability": "nonpayable",
      "type": "function"
    },
    {
      "inputs": [
        {
          "internalType": "address",
          "name": "_contract",
          "type": "address"
        }
      ],
      "name": "setRequiredOwnContract",
      "outputs": [],
      "stateMutability": "nonpayable",
      "type": "function"
    },
    {
      "inputs": [
        {
          "internalType": "bool",
          "name": "_reveal",
          "type": "bool"
        }
      ],
      "name": "setRevealed",
      "outputs": [],
      "stateMutability": "nonpayable",
      "type": "function"
    },
    {
      "inputs": [
        {
          "internalType": "uint8",
          "name": "amount",
          "type": "uint8"
        }
      ],
      "name": "setTokenHoldersMintAmount",
      "outputs": [],
      "stateMutability": "nonpayable",
      "type": "function"
    },
    {
      "inputs": [
        {
          "internalType": "bytes32",
          "name": "_merkleRoot",
          "type": "bytes32"
        }
      ],
      "name": "setWlRoot",
      "outputs": [],
      "stateMutability": "nonpayable",
      "type": "function"
    },
    {
      "inputs": [
        {
          "internalType": "bytes4",
          "name": "interfaceId",
          "type": "bytes4"
        }
      ],
      "name": "supportsInterface",
      "outputs": [
        {
          "internalType": "bool",
          "name": "",
          "type": "bool"
        }
      ],
      "stateMutability": "view",
      "type": "function"
    },
    {
      "inputs": [],
      "name": "symbol",
      "outputs": [
        {
          "internalType": "string",
          "name": "",
          "type": "string"
        }
      ],
      "stateMutability": "view",
      "type": "function"
    },
    {
      "inputs": [],
      "name": "tokenHoldersMint",
      "outputs": [],
      "stateMutability": "payable",
      "type": "function"
    },
    {
      "inputs": [
        {
          "internalType": "uint256",
          "name": "_tokenId",
          "type": "uint256"
        }
      ],
      "name": "tokenURI",
      "outputs": [
        {
          "internalType": "string",
          "name": "",
          "type": "string"
        }
      ],
      "stateMutability": "view",
      "type": "function"
    },
    {
      "inputs": [],
      "name": "totalSupply",
      "outputs": [
        {
          "internalType": "uint256",
          "name": "",
          "type": "uint256"
        }
      ],
      "stateMutability": "view",
      "type": "function"
    },
    {
      "inputs": [
        {
          "internalType": "address",
          "name": "from",
          "type": "address"
        },
        {
          "internalType": "address",
          "name": "to",
          "type": "address"
        },
        {
          "internalType": "uint256",
          "name": "tokenId",
          "type": "uint256"
        }
      ],
      "name": "transferFrom",
      "outputs": [],
      "stateMutability": "nonpayable",
      "type": "function"
    },
    {
      "inputs": [
        {
          "internalType": "address",
          "name": "newOwner",
          "type": "address"
        }
      ],
      "name": "transferOwnership",
      "outputs": [],
      "stateMutability": "nonpayable",
      "type": "function"
    },
    {
      "inputs": [],
      "name": "withdraw",
      "outputs": [],
      "stateMutability": "nonpayable",
      "type": "function"
    }
  ],
  "bytecode": "0x60806040526000600c60146101000a81548160ff0219169083151502179055506001600e556001600f5560076010553480156200003b57600080fd5b506040516200643738038062006437833981810160405281019062000061919062000427565b6040518060400160405280601181526020017f536b756c6c746f6f6e7347656e657369730000000000000000000000000000008152506040518060400160405280600681526020017f534b5447454e00000000000000000000000000000000000000000000000000008152508160029080519060200190620000e5929190620002d7565b508060039080519060200190620000fe929190620002d7565b506200010f6200020460201b60201c565b6000819055505050620001376200012b6200020960201b60201c565b6200021160201b60201c565b600160098190555083600a908051906020019062000157929190620002d7565b5082600b908051906020019062000170929190620002d7565b5081600c60006101000a81548173ffffffffffffffffffffffffffffffffffffffff021916908373ffffffffffffffffffffffffffffffffffffffff1602179055508060148190555033600d60006101000a81548173ffffffffffffffffffffffffffffffffffffffff021916908373ffffffffffffffffffffffffffffffffffffffff16021790555050505050620006a7565b600090565b600033905090565b6000600860009054906101000a900473ffffffffffffffffffffffffffffffffffffffff16905081600860006101000a81548173ffffffffffffffffffffffffffffffffffffffff021916908373ffffffffffffffffffffffffffffffffffffffff1602179055508173ffffffffffffffffffffffffffffffffffffffff168173ffffffffffffffffffffffffffffffffffffffff167f8be0079c531659141344cd1fd0a4f28419497f9722a3daafe3b4186f6b6457e060405160405180910390a35050565b828054620002e59062000598565b90600052602060002090601f01602090048101928262000309576000855562000355565b82601f106200032457805160ff191683800117855562000355565b8280016001018555821562000355579182015b828111156200035457825182559160200191906001019062000337565b5b50905062000364919062000368565b5090565b5b808211156200038357600081600090555060010162000369565b5090565b60006200039e6200039884620004ee565b620004c5565b905082815260208101848484011115620003b757600080fd5b620003c484828562000562565b509392505050565b600081519050620003dd8162000673565b92915050565b600081519050620003f4816200068d565b92915050565b600082601f8301126200040c57600080fd5b81516200041e84826020860162000387565b91505092915050565b600080600080608085870312156200043e57600080fd5b600085015167ffffffffffffffff8111156200045957600080fd5b6200046787828801620003fa565b945050602085015167ffffffffffffffff8111156200048557600080fd5b6200049387828801620003fa565b9350506040620004a687828801620003cc565b9250506060620004b987828801620003e3565b91505092959194509250565b6000620004d1620004e4565b9050620004df8282620005ce565b919050565b6000604051905090565b600067ffffffffffffffff8211156200050c576200050b62000633565b5b620005178262000662565b9050602081019050919050565b6000620005318262000542565b9050919050565b6000819050919050565b600073ffffffffffffffffffffffffffffffffffffffff82169050919050565b60005b838110156200058257808201518184015260208101905062000565565b8381111562000592576000848401525b50505050565b60006002820490506001821680620005b157607f821691505b60208210811415620005c857620005c762000604565b5b50919050565b620005d98262000662565b810181811067ffffffffffffffff82111715620005fb57620005fa62000633565b5b80604052505050565b7f4e487b7100000000000000000000000000000000000000000000000000000000600052602260045260246000fd5b7f4e487b7100000000000000000000000000000000000000000000000000000000600052604160045260246000fd5b6000601f19601f8301169050919050565b6200067e8162000524565b81146200068a57600080fd5b50565b620006988162000538565b8114620006a457600080fd5b50565b615d8080620006b76000396000f3fe60806040526004361061025b5760003560e01c80636352211e11610144578063b88d4fde116100b6578063dc33e6811161007a578063dc33e68114610873578063e0a80853146108b0578063e985e9c5146108d9578063f11ef5cf14610916578063f2fde38b1461093f578063f5bc29b8146109685761025b565b8063b88d4fde1461078e578063c87b56dd146107b7578063cd3f2910146107f4578063cdcd897e1461081d578063d547cfb7146108485761025b565b8063a1554a0311610108578063a1554a03146106c0578063a22cb465146106dc578063a3a40ea514610705578063aa54d61414610730578063ad2f852a1461073a578063ad8bd82c146107655761025b565b80636352211e146105d957806370a0823114610616578063715018a6146106535780638da5cb5b1461066a57806395d89b41146106955761025b565b806326092b83116101dd578063394e3b58116101a1578063394e3b58146104ef5780633ccfd60b1461051a57806342842e0e1461053157806346d98cb51461055a5780634e26d1af1461058357806351830227146105ae5761025b565b806326092b831461042857806327e17b6a146104325780632a55205a1461045d57806330176e131461049b57806332cb6b0c146104c45761025b565b806306fdde031161022457806306fdde0314610343578063081812fc1461036e578063095ea7b3146103ab57806318160ddd146103d457806323b872dd146103ff5761025b565b8062641e1e1461026057806301ffc9a714610289578063050411d1146102c6578063055ea141146102ef57806305c94d9d1461031a575b600080fd5b34801561026c57600080fd5b50610287600480360381019061028291906148c6565b610991565b005b34801561029557600080fd5b506102b060048036038101906102ab9190614b04565b610aa7565b6040516102bd91906151a7565b60405180910390f35b3480156102d257600080fd5b506102ed60048036038101906102e89190614cd7565b610ab9565b005b3480156102fb57600080fd5b50610304610b98565b60405161031191906151c2565b60405180910390f35b34801561032657600080fd5b50610341600480360381019061033c9190614c08565b610c26565b005b34801561034f57600080fd5b50610358610d12565b60405161036591906151c2565b60405180910390f35b34801561037a57600080fd5b5061039560048036038101906103909190614c49565b610da4565b6040516103a291906150e0565b60405180910390f35b3480156103b757600080fd5b506103d260048036038101906103cd9190614a31565b610e20565b005b3480156103e057600080fd5b506103e9610f25565b6040516103f691906153c4565b60405180910390f35b34801561040b57600080fd5b506104266004803603810190610421919061492b565b610f3c565b005b610430610f4c565b005b34801561043e57600080fd5b506104476111b5565b60405161045491906153c4565b60405180910390f35b34801561046957600080fd5b50610484600480360381019061047f9190614c9b565b6111bb565b60405161049292919061517e565b60405180910390f35b3480156104a757600080fd5b506104c260048036038101906104bd9190614c08565b61124e565b005b3480156104d057600080fd5b506104d961133a565b6040516104e691906153c4565b60405180910390f35b3480156104fb57600080fd5b50610504611340565b60405161051191906150e0565b60405180910390f35b34801561052657600080fd5b5061052f611366565b005b34801561053d57600080fd5b506105586004803603810190610553919061492b565b611481565b005b34801561056657600080fd5b50610581600480360381019061057c9190614cd7565b6114a1565b005b34801561058f57600080fd5b50610598611580565b6040516105a591906153c4565b60405180910390f35b3480156105ba57600080fd5b506105c3611586565b6040516105d091906151a7565b60405180910390f35b3480156105e557600080fd5b5061060060048036038101906105fb9190614c49565b611599565b60405161060d91906150e0565b60405180910390f35b34801561062257600080fd5b5061063d600480360381019061063891906148c6565b6115af565b60405161064a91906153c4565b60405180910390f35b34801561065f57600080fd5b5061066861167f565b005b34801561067657600080fd5b5061067f611707565b60405161068c91906150e0565b60405180910390f35b3480156106a157600080fd5b506106aa611731565b6040516106b791906151c2565b60405180910390f35b6106da60048036038101906106d59190614a6d565b6117c3565b005b3480156106e857600080fd5b5061070360048036038101906106fe91906149f5565b611a7d565b005b34801561071157600080fd5b5061071a611bf5565b60405161072791906151c2565b60405180910390f35b610738611f9e565b005b34801561074657600080fd5b5061074f61224f565b60405161075c91906150e0565b60405180910390f35b34801561077157600080fd5b5061078c60048036038101906107879190614adb565b612275565b005b34801561079a57600080fd5b506107b560048036038101906107b0919061497a565b612351565b005b3480156107c357600080fd5b506107de60048036038101906107d99190614c49565b6123c9565b6040516107eb91906151c2565b60405180910390f35b34801561080057600080fd5b5061081b60048036038101906108169190614bdf565b6124ed565b005b34801561082957600080fd5b50610832612612565b60405161083f91906153c4565b60405180910390f35b34801561085457600080fd5b5061085d612618565b60405161086a91906151c2565b60405180910390f35b34801561087f57600080fd5b5061089a600480360381019061089591906148c6565b6126a6565b6040516108a791906153c4565b60405180910390f35b3480156108bc57600080fd5b506108d760048036038101906108d29190614ab2565b6126b8565b005b3480156108e557600080fd5b5061090060048036038101906108fb91906148ef565b6127a7565b60405161090d91906151a7565b60405180910390f35b34801561092257600080fd5b5061093d60048036038101906109389190614cd7565b61283b565b005b34801561094b57600080fd5b50610966600480360381019061096191906148c6565b612977565b005b34801561097457600080fd5b5061098f600480360381019061098a9190614b56565b612a6f565b005b610999612cad565b73ffffffffffffffffffffffffffffffffffffffff166109b7611707565b73ffffffffffffffffffffffffffffffffffffffff1614610a0d576040517f08c379a0000000000000000000000000000000000000000000000000000000008152600401610a0490615304565b60405180910390fd5b60026009541415610a53576040517f08c379a0000000000000000000000000000000000000000000000000000000008152600401610a4a90615344565b60405180910390fd5b600260098190555080600c60006101000a81548173ffffffffffffffffffffffffffffffffffffffff021916908373ffffffffffffffffffffffffffffffffffffffff160217905550600160098190555050565b6000610ab282612cb5565b9050919050565b610ac1612cad565b73ffffffffffffffffffffffffffffffffffffffff16610adf611707565b73ffffffffffffffffffffffffffffffffffffffff1614610b35576040517f08c379a0000000000000000000000000000000000000000000000000000000008152600401610b2c90615304565b60405180910390fd5b60026009541415610b7b576040517f08c379a0000000000000000000000000000000000000000000000000000000008152600401610b7290615344565b60405180910390fd5b60026009819055508060ff16600f81905550600160098190555050565b600b8054610ba5906156b2565b80601f0160208091040260200160405190810160405280929190818152602001828054610bd1906156b2565b8015610c1e5780601f10610bf357610100808354040283529160200191610c1e565b820191906000526020600020905b815481529060010190602001808311610c0157829003601f168201915b505050505081565b610c2e612cad565b73ffffffffffffffffffffffffffffffffffffffff16610c4c611707565b73ffffffffffffffffffffffffffffffffffffffff1614610ca2576040517f08c379a0000000000000000000000000000000000000000000000000000000008152600401610c9990615304565b60405180910390fd5b60026009541415610ce8576040517f08c379a0000000000000000000000000000000000000000000000000000000008152600401610cdf90615344565b60405180910390fd5b600260098190555080600b9080519060200190610d06929190614560565b50600160098190555050565b606060028054610d21906156b2565b80601f0160208091040260200160405190810160405280929190818152602001828054610d4d906156b2565b8015610d9a5780601f10610d6f57610100808354040283529160200191610d9a565b820191906000526020600020905b815481529060010190602001808311610d7d57829003601f168201915b5050505050905090565b6000610daf82612d97565b610de5576040517fcf4700e400000000000000000000000000000000000000000000000000000000815260040160405180910390fd5b6006600083815260200190815260200160002060009054906101000a900473ffffffffffffffffffffffffffffffffffffffff169050919050565b6000610e2b82611599565b90508073ffffffffffffffffffffffffffffffffffffffff168373ffffffffffffffffffffffffffffffffffffffff161415610e93576040517f943f7b8c00000000000000000000000000000000000000000000000000000000815260040160405180910390fd5b8073ffffffffffffffffffffffffffffffffffffffff16610eb2612cad565b73ffffffffffffffffffffffffffffffffffffffff1614610f1557610ede81610ed9612cad565b6127a7565b610f14576040517fcfb3b94200000000000000000000000000000000000000000000000000000000815260040160405180910390fd5b5b610f20838383612de5565b505050565b6000610f2f612e97565b6001546000540303905090565b610f47838383612e9c565b505050565b60026009541415610f92576040517f08c379a0000000000000000000000000000000000000000000000000000000008152600401610f8990615344565b60405180910390fd5b6002600981905550600380811115610fd3577f4e487b7100000000000000000000000000000000000000000000000000000000600052602160045260246000fd5b600c60159054906101000a900460ff16600381111561101b577f4e487b7100000000000000000000000000000000000000000000000000000000600052602160045260246000fd5b1461105b576040517f08c379a000000000000000000000000000000000000000000000000000000000815260040161105290615324565b60405180910390fd5b60001515601360003373ffffffffffffffffffffffffffffffffffffffff1673ffffffffffffffffffffffffffffffffffffffff16815260200190815260200160002060009054906101000a900460ff161515146110ee576040517f08c379a00000000000000000000000000000000000000000000000000000000081526004016110e5906152a4565b60405180910390fd5b6106f1600f546110fc613352565b61110691906154be565b1115611147576040517f08c379a000000000000000000000000000000000000000000000000000000000815260040161113e90615284565b60405180910390fd5b6001601360003373ffffffffffffffffffffffffffffffffffffffff1673ffffffffffffffffffffffffffffffffffffffff16815260200190815260200160002060006101000a81548160ff0219169083151502179055506111ab33600f54613365565b6001600981905550565b600e5481565b6000806111c784612d97565b611206576040517f08c379a00000000000000000000000000000000000000000000000000000000081526004016111fd90615264565b60405180910390fd5b600d60009054906101000a900473ffffffffffffffffffffffffffffffffffffffff166010546064856112399190615514565b6112439190615545565b915091509250929050565b611256612cad565b73ffffffffffffffffffffffffffffffffffffffff16611274611707565b73ffffffffffffffffffffffffffffffffffffffff16146112ca576040517f08c379a00000000000000000000000000000000000000000000000000000000081526004016112c190615304565b60405180910390fd5b60026009541415611310576040517f08c379a000000000000000000000000000000000000000000000000000000000815260040161130790615344565b60405180910390fd5b600260098190555080600a908051906020019061132e929190614560565b50600160098190555050565b6106f181565b600c60009054906101000a900473ffffffffffffffffffffffffffffffffffffffff1681565b61136e612cad565b73ffffffffffffffffffffffffffffffffffffffff1661138c611707565b73ffffffffffffffffffffffffffffffffffffffff16146113e2576040517f08c379a00000000000000000000000000000000000000000000000000000000081526004016113d990615304565b60405180910390fd5b60026009541415611428576040517f08c379a000000000000000000000000000000000000000000000000000000000815260040161141f90615344565b60405180910390fd5b60026009819055503373ffffffffffffffffffffffffffffffffffffffff166108fc479081150290604051600060405180830381858888f19350505050158015611476573d6000803e3d6000fd5b506001600981905550565b61149c83838360405180602001604052806000815250612351565b505050565b6114a9612cad565b73ffffffffffffffffffffffffffffffffffffffff166114c7611707565b73ffffffffffffffffffffffffffffffffffffffff161461151d576040517f08c379a000000000000000000000000000000000000000000000000000000000815260040161151490615304565b60405180910390fd5b60026009541415611563576040517f08c379a000000000000000000000000000000000000000000000000000000000815260040161155a90615344565b60405180910390fd5b60026009819055508060ff16600e81905550600160098190555050565b600f5481565b600c60149054906101000a900460ff1681565b60006115a482613383565b600001519050919050565b60008073ffffffffffffffffffffffffffffffffffffffff168273ffffffffffffffffffffffffffffffffffffffff161415611617576040517f8f4eb60400000000000000000000000000000000000000000000000000000000815260040160405180910390fd5b600560008373ffffffffffffffffffffffffffffffffffffffff1673ffffffffffffffffffffffffffffffffffffffff16815260200190815260200160002060000160009054906101000a900467ffffffffffffffff1667ffffffffffffffff169050919050565b611687612cad565b73ffffffffffffffffffffffffffffffffffffffff166116a5611707565b73ffffffffffffffffffffffffffffffffffffffff16146116fb576040517f08c379a00000000000000000000000000000000000000000000000000000000081526004016116f290615304565b60405180910390fd5b611705600061360e565b565b6000600860009054906101000a900473ffffffffffffffffffffffffffffffffffffffff16905090565b606060038054611740906156b2565b80601f016020809104026020016040519081016040528092919081815260200182805461176c906156b2565b80156117b95780601f1061178e576101008083540402835291602001916117b9565b820191906000526020600020905b81548152906001019060200180831161179c57829003601f168201915b5050505050905090565b60026009541415611809576040517f08c379a000000000000000000000000000000000000000000000000000000000815260040161180090615344565b60405180910390fd5b6002600981905550600061181d83836136d4565b905060016003811115611859577f4e487b7100000000000000000000000000000000000000000000000000000000600052602160045260246000fd5b600c60159054906101000a900460ff1660038111156118a1577f4e487b7100000000000000000000000000000000000000000000000000000000600052602160045260246000fd5b146118e1576040517f08c379a00000000000000000000000000000000000000000000000000000000081526004016118d890615364565b60405180910390fd5b60001515601160003373ffffffffffffffffffffffffffffffffffffffff1673ffffffffffffffffffffffffffffffffffffffff16815260200190815260200160002060009054906101000a900460ff16151514611974576040517f08c379a000000000000000000000000000000000000000000000000000000000815260040161196b906152e4565b60405180910390fd5b600081116119b7576040517f08c379a00000000000000000000000000000000000000000000000000000000081526004016119ae906152c4565b60405180910390fd5b6106f1816119c3613352565b6119cd91906154be565b1115611a0e576040517f08c379a0000000000000000000000000000000000000000000000000000000008152600401611a0590615284565b60405180910390fd5b6001601160003373ffffffffffffffffffffffffffffffffffffffff1673ffffffffffffffffffffffffffffffffffffffff16815260200190815260200160002060006101000a81548160ff021916908315150217905550611a703382613365565b5060016009819055505050565b611a85612cad565b73ffffffffffffffffffffffffffffffffffffffff168273ffffffffffffffffffffffffffffffffffffffff161415611aea576040517fb06307db00000000000000000000000000000000000000000000000000000000815260040160405180910390fd5b8060076000611af7612cad565b73ffffffffffffffffffffffffffffffffffffffff1673ffffffffffffffffffffffffffffffffffffffff16815260200190815260200160002060008473ffffffffffffffffffffffffffffffffffffffff1673ffffffffffffffffffffffffffffffffffffffff16815260200190815260200160002060006101000a81548160ff0219169083151502179055508173ffffffffffffffffffffffffffffffffffffffff16611ba4612cad565b73ffffffffffffffffffffffffffffffffffffffff167f17307eab39ab6107e8899845ad3d59bd9653f200f220920489ca2b5937696c3183604051611be991906151a7565b60405180910390a35050565b60606003600c60159054906101000a900460ff166003811115611c41577f4e487b7100000000000000000000000000000000000000000000000000000000600052602160045260246000fd5b60ff161115611c4f57600080fd5b600c60159054906101000a900460ff166003811115611c97577f4e487b7100000000000000000000000000000000000000000000000000000000600052602160045260246000fd5b60006003811115611cd1577f4e487b7100000000000000000000000000000000000000000000000000000000600052602160045260246000fd5b1415611d14576040518060400160405280600a81526020017f4e4f545f414354495645000000000000000000000000000000000000000000008152509050611f9b565b600c60159054906101000a900460ff166003811115611d5c577f4e487b7100000000000000000000000000000000000000000000000000000000600052602160045260246000fd5b60016003811115611d96577f4e487b7100000000000000000000000000000000000000000000000000000000600052602160045260246000fd5b1415611dd9576040518060400160405280600881526020017f5052455f53414c450000000000000000000000000000000000000000000000008152509050611f9b565b600c60159054906101000a900460ff166003811115611e21577f4e487b7100000000000000000000000000000000000000000000000000000000600052602160045260246000fd5b60026003811115611e5b577f4e487b7100000000000000000000000000000000000000000000000000000000600052602160045260246000fd5b1415611e9e576040518060400160405280601781526020017f534b554c4c5f544f4f4e5f484f4c444552535f4d494e540000000000000000008152509050611f9b565b600c60159054906101000a900460ff166003811115611ee6577f4e487b7100000000000000000000000000000000000000000000000000000000600052602160045260246000fd5b600380811115611f1f577f4e487b7100000000000000000000000000000000000000000000000000000000600052602160045260246000fd5b1415611f62576040518060400160405280600681526020017f5055424c494300000000000000000000000000000000000000000000000000008152509050611f9b565b6040518060400160405280601181526020017f4e4f545f415f56414c49445f504841534500000000000000000000000000000081525090505b90565b60026009541415611fe4576040517f08c379a0000000000000000000000000000000000000000000000000000000008152600401611fdb90615344565b60405180910390fd5b600260098190555060026003811115612026577f4e487b7100000000000000000000000000000000000000000000000000000000600052602160045260246000fd5b600c60159054906101000a900460ff16600381111561206e577f4e487b7100000000000000000000000000000000000000000000000000000000600052602160045260246000fd5b146120ae576040517f08c379a00000000000000000000000000000000000000000000000000000000081526004016120a590615384565b60405180910390fd5b60001515601260003373ffffffffffffffffffffffffffffffffffffffff1673ffffffffffffffffffffffffffffffffffffffff16815260200190815260200160002060009054906101000a900460ff16151514612141576040517f08c379a0000000000000000000000000000000000000000000000000000000008152600401612138906151e4565b60405180910390fd5b612149613871565b612188576040517f08c379a000000000000000000000000000000000000000000000000000000000815260040161217f90615244565b60405180910390fd5b6106f1600e54612196613352565b6121a091906154be565b11156121e1576040517f08c379a00000000000000000000000000000000000000000000000000000000081526004016121d890615284565b60405180910390fd5b6001601260003373ffffffffffffffffffffffffffffffffffffffff1673ffffffffffffffffffffffffffffffffffffffff16815260200190815260200160002060006101000a81548160ff02191690831515021790555061224533600e54613365565b6001600981905550565b600d60009054906101000a900473ffffffffffffffffffffffffffffffffffffffff1681565b61227d612cad565b73ffffffffffffffffffffffffffffffffffffffff1661229b611707565b73ffffffffffffffffffffffffffffffffffffffff16146122f1576040517f08c379a00000000000000000000000000000000000000000000000000000000081526004016122e890615304565b60405180910390fd5b60026009541415612337576040517f08c379a000000000000000000000000000000000000000000000000000000000815260040161232e90615344565b60405180910390fd5b600260098190555080601481905550600160098190555050565b61235c848484612e9c565b61237b8373ffffffffffffffffffffffffffffffffffffffff16613925565b156123c35761238c84848484613948565b6123c2576040517fd1a57ed600000000000000000000000000000000000000000000000000000000815260040160405180910390fd5b5b50505050565b60606123d482612d97565b612413576040517f08c379a000000000000000000000000000000000000000000000000000000000815260040161240a90615264565b60405180910390fd5b600c60149054906101000a900460ff161561245a57600a61243383613aa8565b6040516020016124449291906150b1565b60405160208183030381529060405290506124e8565b600b8054612467906156b2565b80601f0160208091040260200160405190810160405280929190818152602001828054612493906156b2565b80156124e05780601f106124b5576101008083540402835291602001916124e0565b820191906000526020600020905b8154815290600101906020018083116124c357829003601f168201915b505050505090505b919050565b6124f5612cad565b73ffffffffffffffffffffffffffffffffffffffff16612513611707565b73ffffffffffffffffffffffffffffffffffffffff1614612569576040517f08c379a000000000000000000000000000000000000000000000000000000000815260040161256090615304565b60405180910390fd5b600260095414156125af576040517f08c379a00000000000000000000000000000000000000000000000000000000081526004016125a690615344565b60405180910390fd5b600260098190555080600c60156101000a81548160ff02191690836003811115612602577f4e487b7100000000000000000000000000000000000000000000000000000000600052602160045260246000fd5b0217905550600160098190555050565b60105481565b600a8054612625906156b2565b80601f0160208091040260200160405190810160405280929190818152602001828054612651906156b2565b801561269e5780601f106126735761010080835404028352916020019161269e565b820191906000526020600020905b81548152906001019060200180831161268157829003601f168201915b505050505081565b60006126b182613c55565b9050919050565b6126c0612cad565b73ffffffffffffffffffffffffffffffffffffffff166126de611707565b73ffffffffffffffffffffffffffffffffffffffff1614612734576040517f08c379a000000000000000000000000000000000000000000000000000000000815260040161272b90615304565b60405180910390fd5b6002600954141561277a576040517f08c379a000000000000000000000000000000000000000000000000000000000815260040161277190615344565b60405180910390fd5b600260098190555080600c60146101000a81548160ff021916908315150217905550600160098190555050565b6000600760008473ffffffffffffffffffffffffffffffffffffffff1673ffffffffffffffffffffffffffffffffffffffff16815260200190815260200160002060008373ffffffffffffffffffffffffffffffffffffffff1673ffffffffffffffffffffffffffffffffffffffff16815260200190815260200160002060009054906101000a900460ff16905092915050565b612843612cad565b73ffffffffffffffffffffffffffffffffffffffff16612861611707565b73ffffffffffffffffffffffffffffffffffffffff16146128b7576040517f08c379a00000000000000000000000000000000000000000000000000000000081526004016128ae90615304565b60405180910390fd5b600260095414156128fd576040517f08c379a00000000000000000000000000000000000000000000000000000000081526004016128f490615344565b60405180910390fd5b60026009819055506106f18160ff16612914613352565b61291e91906154be565b111561295f576040517f08c379a000000000000000000000000000000000000000000000000000000000815260040161295690615284565b60405180910390fd5b61296c338260ff16613cbf565b600160098190555050565b61297f612cad565b73ffffffffffffffffffffffffffffffffffffffff1661299d611707565b73ffffffffffffffffffffffffffffffffffffffff16146129f3576040517f08c379a00000000000000000000000000000000000000000000000000000000081526004016129ea90615304565b60405180910390fd5b600073ffffffffffffffffffffffffffffffffffffffff168173ffffffffffffffffffffffffffffffffffffffff161415612a63576040517f08c379a0000000000000000000000000000000000000000000000000000000008152600401612a5a90615204565b60405180910390fd5b612a6c8161360e565b50565b612a77612cad565b73ffffffffffffffffffffffffffffffffffffffff16612a95611707565b73ffffffffffffffffffffffffffffffffffffffff1614612aeb576040517f08c379a0000000000000000000000000000000000000000000000000000000008152600401612ae290615304565b60405180910390fd5b60026009541415612b31576040517f08c379a0000000000000000000000000000000000000000000000000000000008152600401612b2890615344565b60405180910390fd5b6002600981905550818190508484905014612b81576040517f08c379a0000000000000000000000000000000000000000000000000000000008152600401612b78906153a4565b60405180910390fd5b60005b84849050811015612c9d578573ffffffffffffffffffffffffffffffffffffffff166342842e0e33878785818110612be5577f4e487b7100000000000000000000000000000000000000000000000000000000600052603260045260246000fd5b9050602002016020810190612bfa91906148c6565b868686818110612c33577f4e487b7100000000000000000000000000000000000000000000000000000000600052603260045260246000fd5b905060200201356040518463ffffffff1660e01b8152600401612c58939291906150fb565b600060405180830381600087803b158015612c7257600080fd5b505af1158015612c86573d6000803e3d6000fd5b505050508080612c9590615715565b915050612b84565b5060016009819055505050505050565b600033905090565b60007f80ac58cd000000000000000000000000000000000000000000000000000000007bffffffffffffffffffffffffffffffffffffffffffffffffffffffff1916827bffffffffffffffffffffffffffffffffffffffffffffffffffffffff19161480612d8057507f5b5e139f000000000000000000000000000000000000000000000000000000007bffffffffffffffffffffffffffffffffffffffffffffffffffffffff1916827bffffffffffffffffffffffffffffffffffffffffffffffffffffffff1916145b80612d905750612d8f82613f9b565b5b9050919050565b600081612da2612e97565b11158015612db1575060005482105b8015612dde575060046000838152602001908152602001600020600001601c9054906101000a900460ff16155b9050919050565b826006600084815260200190815260200160002060006101000a81548173ffffffffffffffffffffffffffffffffffffffff021916908373ffffffffffffffffffffffffffffffffffffffff160217905550818373ffffffffffffffffffffffffffffffffffffffff168273ffffffffffffffffffffffffffffffffffffffff167f8c5be1e5ebec7d5bd14f71427d1e84f3dd0314c0f7b2291e5b200ac8c7c3b92560405160405180910390a4505050565b600090565b6000612ea782613383565b90508373ffffffffffffffffffffffffffffffffffffffff16816000015173ffffffffffffffffffffffffffffffffffffffff1614612f12576040517fa114810000000000000000000000000000000000000000000000000000000000815260040160405180910390fd5b60008473ffffffffffffffffffffffffffffffffffffffff16612f33612cad565b73ffffffffffffffffffffffffffffffffffffffff161480612f625750612f6185612f5c612cad565b6127a7565b5b80612fa75750612f70612cad565b73ffffffffffffffffffffffffffffffffffffffff16612f8f84610da4565b73ffffffffffffffffffffffffffffffffffffffff16145b905080612fe0576040517f59c896be00000000000000000000000000000000000000000000000000000000815260040160405180910390fd5b600073ffffffffffffffffffffffffffffffffffffffff168473ffffffffffffffffffffffffffffffffffffffff161415613047576040517fea553b3400000000000000000000000000000000000000000000000000000000815260040160405180910390fd5b6130548585856001614005565b61306060008487612de5565b6001600560008773ffffffffffffffffffffffffffffffffffffffff1673ffffffffffffffffffffffffffffffffffffffff16815260200190815260200160002060000160008282829054906101000a900467ffffffffffffffff160392506101000a81548167ffffffffffffffff021916908367ffffffffffffffff1602179055506001600560008673ffffffffffffffffffffffffffffffffffffffff1673ffffffffffffffffffffffffffffffffffffffff16815260200190815260200160002060000160008282829054906101000a900467ffffffffffffffff160192506101000a81548167ffffffffffffffff021916908367ffffffffffffffff1602179055506000600460008581526020019081526020016000209050848160000160006101000a81548173ffffffffffffffffffffffffffffffffffffffff021916908373ffffffffffffffffffffffffffffffffffffffff160217905550428160000160146101000a81548167ffffffffffffffff021916908367ffffffffffffffff16021790555060006001850190506000600460008381526020019081526020016000209050600073ffffffffffffffffffffffffffffffffffffffff168160000160009054906101000a900473ffffffffffffffffffffffffffffffffffffffff1673ffffffffffffffffffffffffffffffffffffffff1614156132e05760005482146132df57878160000160006101000a81548173ffffffffffffffffffffffffffffffffffffffff021916908373ffffffffffffffffffffffffffffffffffffffff16021790555084602001518160000160146101000a81548167ffffffffffffffff021916908367ffffffffffffffff1602179055505b5b505050828473ffffffffffffffffffffffffffffffffffffffff168673ffffffffffffffffffffffffffffffffffffffff167fddf252ad1be2c89b69c2b068fc378daa952ba7f163c4a11628f55a4df523b3ef60405160405180910390a461334b858585600161400b565b5050505050565b600061335c612e97565b60005403905090565b61337f828260405180602001604052806000815250614011565b5050565b61338b6145e6565b600082905080613399612e97565b116135d7576000548110156135d6576000600460008381526020019081526020016000206040518060600160405290816000820160009054906101000a900473ffffffffffffffffffffffffffffffffffffffff1673ffffffffffffffffffffffffffffffffffffffff1673ffffffffffffffffffffffffffffffffffffffff1681526020016000820160149054906101000a900467ffffffffffffffff1667ffffffffffffffff1667ffffffffffffffff16815260200160008201601c9054906101000a900460ff161515151581525050905080604001516135d457600073ffffffffffffffffffffffffffffffffffffffff16816000015173ffffffffffffffffffffffffffffffffffffffff16146134b8578092505050613609565b5b6001156135d357818060019003925050600460008381526020019081526020016000206040518060600160405290816000820160009054906101000a900473ffffffffffffffffffffffffffffffffffffffff1673ffffffffffffffffffffffffffffffffffffffff1673ffffffffffffffffffffffffffffffffffffffff1681526020016000820160149054906101000a900467ffffffffffffffff1667ffffffffffffffff1667ffffffffffffffff16815260200160008201601c9054906101000a900460ff1615151515815250509050600073ffffffffffffffffffffffffffffffffffffffff16816000015173ffffffffffffffffffffffffffffffffffffffff16146135ce578092505050613609565b6134b9565b5b505b5b6040517fdf2d9b4200000000000000000000000000000000000000000000000000000000815260040160405180910390fd5b919050565b6000600860009054906101000a900473ffffffffffffffffffffffffffffffffffffffff16905081600860006101000a81548173ffffffffffffffffffffffffffffffffffffffff021916908373ffffffffffffffffffffffffffffffffffffffff1602179055508173ffffffffffffffffffffffffffffffffffffffff168173ffffffffffffffffffffffffffffffffffffffff167f8be0079c531659141344cd1fd0a4f28419497f9722a3daafe3b4186f6b6457e060405160405180910390a35050565b60008060009050600a600c60009054906101000a900473ffffffffffffffffffffffffffffffffffffffff1673ffffffffffffffffffffffffffffffffffffffff166370a08231336040518263ffffffff1660e01b815260040161373891906150e0565b60206040518083038186803b15801561375057600080fd5b505afa158015613764573d6000803e3d6000fd5b505050506040513d601f19601f820116820180604052508101906137889190614c72565b106137965760029050613867565b6005600c60009054906101000a900473ffffffffffffffffffffffffffffffffffffffff1673ffffffffffffffffffffffffffffffffffffffff166370a08231336040518263ffffffff1660e01b81526004016137f391906150e0565b60206040518083038186803b15801561380b57600080fd5b505afa15801561381f573d6000803e3d6000fd5b505050506040513d601f19601f820116820180604052508101906138439190614c72565b106138515760019050613866565b61385b84846143d3565b1561386557600190505b5b5b8091505092915050565b600080600c60009054906101000a900473ffffffffffffffffffffffffffffffffffffffff1673ffffffffffffffffffffffffffffffffffffffff166370a08231336040518263ffffffff1660e01b81526004016138cf91906150e0565b60206040518083038186803b1580156138e757600080fd5b505afa1580156138fb573d6000803e3d6000fd5b505050506040513d601f19601f8201168201806040525081019061391f9190614c72565b11905090565b6000808273ffffffffffffffffffffffffffffffffffffffff163b119050919050565b60008373ffffffffffffffffffffffffffffffffffffffff1663150b7a0261396e612cad565b8786866040518563ffffffff1660e01b81526004016139909493929190615132565b602060405180830381600087803b1580156139aa57600080fd5b505af19250505080156139db57506040513d601f19601f820116820180604052508101906139d89190614b2d565b60015b613a55573d8060008114613a0b576040519150601f19603f3d011682016040523d82523d6000602084013e613a10565b606091505b50600081511415613a4d576040517fd1a57ed600000000000000000000000000000000000000000000000000000000815260040160405180910390fd5b805181602001fd5b63150b7a0260e01b7bffffffffffffffffffffffffffffffffffffffffffffffffffffffff1916817bffffffffffffffffffffffffffffffffffffffffffffffffffffffff191614915050949350505050565b60606000821415613af0576040518060400160405280600181526020017f30000000000000000000000000000000000000000000000000000000000000008152509050613c50565b600082905060005b60008214613b22578080613b0b90615715565b915050600a82613b1b9190615514565b9150613af8565b60008167ffffffffffffffff811115613b64577f4e487b7100000000000000000000000000000000000000000000000000000000600052604160045260246000fd5b6040519080825280601f01601f191660200182016040528015613b965781602001600182028036833780820191505090505b5090505b60008514613c4957600182613baf919061559f565b9150600a85613bbe9190615782565b6030613bca91906154be565b60f81b818381518110613c06577f4e487b7100000000000000000000000000000000000000000000000000000000600052603260045260246000fd5b60200101907effffffffffffffffffffffffffffffffffffffffffffffffffffffffffffff1916908160001a905350600a85613c429190615514565b9450613b9a565b8093505050505b919050565b6000600560008373ffffffffffffffffffffffffffffffffffffffff1673ffffffffffffffffffffffffffffffffffffffff16815260200190815260200160002060000160089054906101000a900467ffffffffffffffff1667ffffffffffffffff169050919050565b600080549050600073ffffffffffffffffffffffffffffffffffffffff168373ffffffffffffffffffffffffffffffffffffffff161415613d2c576040517f2e07630000000000000000000000000000000000000000000000000000000000815260040160405180910390fd5b6000821415613d67576040517fb562e8dd00000000000000000000000000000000000000000000000000000000815260040160405180910390fd5b613d746000848385614005565b81600560008573ffffffffffffffffffffffffffffffffffffffff1673ffffffffffffffffffffffffffffffffffffffff16815260200190815260200160002060000160008282829054906101000a900467ffffffffffffffff160192506101000a81548167ffffffffffffffff021916908367ffffffffffffffff16021790555081600560008573ffffffffffffffffffffffffffffffffffffffff1673ffffffffffffffffffffffffffffffffffffffff16815260200190815260200160002060000160088282829054906101000a900467ffffffffffffffff160192506101000a81548167ffffffffffffffff021916908367ffffffffffffffff160217905550826004600083815260200190815260200160002060000160006101000a81548173ffffffffffffffffffffffffffffffffffffffff021916908373ffffffffffffffffffffffffffffffffffffffff160217905550426004600083815260200190815260200160002060000160146101000a81548167ffffffffffffffff021916908367ffffffffffffffff1602179055506000819050600083820190505b818060010192508573ffffffffffffffffffffffffffffffffffffffff16600073ffffffffffffffffffffffffffffffffffffffff167fddf252ad1be2c89b69c2b068fc378daa952ba7f163c4a11628f55a4df523b3ef60405160405180910390a4808210613f1757816000819055505050613f96600084838561400b565b505050565b60007f01ffc9a7000000000000000000000000000000000000000000000000000000007bffffffffffffffffffffffffffffffffffffffffffffffffffffffff1916827bffffffffffffffffffffffffffffffffffffffffffffffffffffffff1916149050919050565b50505050565b50505050565b600080549050600073ffffffffffffffffffffffffffffffffffffffff168473ffffffffffffffffffffffffffffffffffffffff16141561407e576040517f2e07630000000000000000000000000000000000000000000000000000000000815260040160405180910390fd5b60008314156140b9576040517fb562e8dd00000000000000000000000000000000000000000000000000000000815260040160405180910390fd5b6140c66000858386614005565b82600560008673ffffffffffffffffffffffffffffffffffffffff1673ffffffffffffffffffffffffffffffffffffffff16815260200190815260200160002060000160008282829054906101000a900467ffffffffffffffff160192506101000a81548167ffffffffffffffff021916908367ffffffffffffffff16021790555082600560008673ffffffffffffffffffffffffffffffffffffffff1673ffffffffffffffffffffffffffffffffffffffff16815260200190815260200160002060000160088282829054906101000a900467ffffffffffffffff160192506101000a81548167ffffffffffffffff021916908367ffffffffffffffff160217905550836004600083815260200190815260200160002060000160006101000a81548173ffffffffffffffffffffffffffffffffffffffff021916908373ffffffffffffffffffffffffffffffffffffffff160217905550426004600083815260200190815260200160002060000160146101000a81548167ffffffffffffffff021916908367ffffffffffffffff1602179055506000819050600084820190506142878673ffffffffffffffffffffffffffffffffffffffff16613925565b1561434c575b818673ffffffffffffffffffffffffffffffffffffffff16600073ffffffffffffffffffffffffffffffffffffffff167fddf252ad1be2c89b69c2b068fc378daa952ba7f163c4a11628f55a4df523b3ef60405160405180910390a46142fc6000878480600101955087613948565b614332576040517fd1a57ed600000000000000000000000000000000000000000000000000000000815260040160405180910390fd5b80821061428d57826000541461434757600080fd5b6143b7565b5b818060010192508673ffffffffffffffffffffffffffffffffffffffff16600073ffffffffffffffffffffffffffffffffffffffff167fddf252ad1be2c89b69c2b068fc378daa952ba7f163c4a11628f55a4df523b3ef60405160405180910390a480821061434d575b8160008190555050506143cd600085838661400b565b50505050565b600080602060ff161161441b576040517f08c379a000000000000000000000000000000000000000000000000000000000815260040161441290615224565b60405180910390fd5b61448f838380806020026020016040519081016040528093929190818152602001838360200280828437600081840152601f19601f82011690508083019250505050505050601454336040516020016144749190615096565b60405160208183030381529060405280519060200120614497565b905092915050565b6000826144a485846144ae565b1490509392505050565b60008082905060005b845181101561453e5760008582815181106144fb577f4e487b7100000000000000000000000000000000000000000000000000000000600052603260045260246000fd5b6020026020010151905080831161451d576145168382614549565b925061452a565b6145278184614549565b92505b50808061453690615715565b9150506144b7565b508091505092915050565b600082600052816020526040600020905092915050565b82805461456c906156b2565b90600052602060002090601f01602090048101928261458e57600085556145d5565b82601f106145a757805160ff19168380011785556145d5565b828001600101855582156145d5579182015b828111156145d45782518255916020019190600101906145b9565b5b5090506145e29190614629565b5090565b6040518060600160405280600073ffffffffffffffffffffffffffffffffffffffff168152602001600067ffffffffffffffff1681526020016000151581525090565b5b8082111561464257600081600090555060010161462a565b5090565b600061465961465484615404565b6153df565b90508281526020810184848401111561467157600080fd5b61467c848285615670565b509392505050565b600061469761469284615435565b6153df565b9050828152602081018484840111156146af57600080fd5b6146ba848285615670565b509392505050565b6000813590506146d181615c99565b92915050565b60008083601f8401126146e957600080fd5b8235905067ffffffffffffffff81111561470257600080fd5b60208301915083602082028301111561471a57600080fd5b9250929050565b60008083601f84011261473357600080fd5b8235905067ffffffffffffffff81111561474c57600080fd5b60208301915083602082028301111561476457600080fd5b9250929050565b60008083601f84011261477d57600080fd5b8235905067ffffffffffffffff81111561479657600080fd5b6020830191508360208202830111156147ae57600080fd5b9250929050565b6000813590506147c481615cb0565b92915050565b6000813590506147d981615cc7565b92915050565b6000813590506147ee81615cde565b92915050565b60008151905061480381615cde565b92915050565b600082601f83011261481a57600080fd5b813561482a848260208601614646565b91505092915050565b60008135905061484281615cf5565b92915050565b60008135905061485781615d0c565b92915050565b600082601f83011261486e57600080fd5b813561487e848260208601614684565b91505092915050565b60008135905061489681615d1c565b92915050565b6000815190506148ab81615d1c565b92915050565b6000813590506148c081615d33565b92915050565b6000602082840312156148d857600080fd5b60006148e6848285016146c2565b91505092915050565b6000806040838503121561490257600080fd5b6000614910858286016146c2565b9250506020614921858286016146c2565b9150509250929050565b60008060006060848603121561494057600080fd5b600061494e868287016146c2565b935050602061495f868287016146c2565b925050604061497086828701614887565b9150509250925092565b6000806000806080858703121561499057600080fd5b600061499e878288016146c2565b94505060206149af878288016146c2565b93505060406149c087828801614887565b925050606085013567ffffffffffffffff8111156149dd57600080fd5b6149e987828801614809565b91505092959194509250565b60008060408385031215614a0857600080fd5b6000614a16858286016146c2565b9250506020614a27858286016147b5565b9150509250929050565b60008060408385031215614a4457600080fd5b6000614a52858286016146c2565b9250506020614a6385828601614887565b9150509250929050565b60008060208385031215614a8057600080fd5b600083013567ffffffffffffffff811115614a9a57600080fd5b614aa685828601614721565b92509250509250929050565b600060208284031215614ac457600080fd5b6000614ad2848285016147b5565b91505092915050565b600060208284031215614aed57600080fd5b6000614afb848285016147ca565b91505092915050565b600060208284031215614b1657600080fd5b6000614b24848285016147df565b91505092915050565b600060208284031215614b3f57600080fd5b6000614b4d848285016147f4565b91505092915050565b600080600080600060608688031215614b6e57600080fd5b6000614b7c88828901614833565b955050602086013567ffffffffffffffff811115614b9957600080fd5b614ba5888289016146d7565b9450945050604086013567ffffffffffffffff811115614bc457600080fd5b614bd08882890161476b565b92509250509295509295909350565b600060208284031215614bf157600080fd5b6000614bff84828501614848565b91505092915050565b600060208284031215614c1a57600080fd5b600082013567ffffffffffffffff811115614c3457600080fd5b614c408482850161485d565b91505092915050565b600060208284031215614c5b57600080fd5b6000614c6984828501614887565b91505092915050565b600060208284031215614c8457600080fd5b6000614c928482850161489c565b91505092915050565b60008060408385031215614cae57600080fd5b6000614cbc85828601614887565b9250506020614ccd85828601614887565b9150509250929050565b600060208284031215614ce957600080fd5b6000614cf7848285016148b1565b91505092915050565b614d09816155d3565b82525050565b614d20614d1b826155d3565b61575e565b82525050565b614d2f816155e5565b82525050565b6000614d408261547b565b614d4a8185615491565b9350614d5a81856020860161567f565b614d638161586f565b840191505092915050565b6000614d7982615486565b614d8381856154a2565b9350614d9381856020860161567f565b614d9c8161586f565b840191505092915050565b6000614db282615486565b614dbc81856154b3565b9350614dcc81856020860161567f565b80840191505092915050565b60008154614de5816156b2565b614def81866154b3565b94506001821660008114614e0a5760018114614e1b57614e4e565b60ff19831686528186019350614e4e565b614e2485615466565b60005b83811015614e4657815481890152600182019150602081019050614e27565b838801955050505b50505092915050565b6000614e64602a836154a2565b9150614e6f8261588d565b604082019050919050565b6000614e876026836154a2565b9150614e92826158dc565b604082019050919050565b6000614eaa601a836154a2565b9150614eb58261592b565b602082019050919050565b6000614ecd6029836154a2565b9150614ed882615954565b604082019050919050565b6000614ef06014836154a2565b9150614efb826159a3565b602082019050919050565b6000614f136015836154a2565b9150614f1e826159cc565b602082019050919050565b6000614f366025836154a2565b9150614f41826159f5565b604082019050919050565b6000614f596067836154a2565b9150614f6482615a44565b608082019050919050565b6000614f7c6026836154a2565b9150614f8782615adf565b604082019050919050565b6000614f9f6005836154b3565b9150614faa82615b2e565b600582019050919050565b6000614fc26020836154a2565b9150614fcd82615b57565b602082019050919050565b6000614fe56017836154a2565b9150614ff082615b80565b602082019050919050565b6000615008601f836154a2565b915061501382615ba9565b602082019050919050565b600061502b601f836154a2565b915061503682615bd2565b602082019050919050565b600061504e6028836154a2565b915061505982615bfb565b604082019050919050565b60006150716027836154a2565b915061507c82615c4a565b604082019050919050565b61509081615659565b82525050565b60006150a28284614d0f565b60148201915081905092915050565b60006150bd8285614dd8565b91506150c98284614da7565b91506150d482614f92565b91508190509392505050565b60006020820190506150f56000830184614d00565b92915050565b60006060820190506151106000830186614d00565b61511d6020830185614d00565b61512a6040830184615087565b949350505050565b60006080820190506151476000830187614d00565b6151546020830186614d00565b6151616040830185615087565b81810360608301526151738184614d35565b905095945050505050565b60006040820190506151936000830185614d00565b6151a06020830184615087565b9392505050565b60006020820190506151bc6000830184614d26565b92915050565b600060208201905081810360008301526151dc8184614d6e565b905092915050565b600060208201905081810360008301526151fd81614e57565b9050919050565b6000602082019050818103600083015261521d81614e7a565b9050919050565b6000602082019050818103600083015261523d81614e9d565b9050919050565b6000602082019050818103600083015261525d81614ec0565b9050919050565b6000602082019050818103600083015261527d81614ee3565b9050919050565b6000602082019050818103600083015261529d81614f06565b9050919050565b600060208201905081810360008301526152bd81614f29565b9050919050565b600060208201905081810360008301526152dd81614f4c565b9050919050565b600060208201905081810360008301526152fd81614f6f565b9050919050565b6000602082019050818103600083015261531d81614fb5565b9050919050565b6000602082019050818103600083015261533d81614fd8565b9050919050565b6000602082019050818103600083015261535d81614ffb565b9050919050565b6000602082019050818103600083015261537d8161501e565b9050919050565b6000602082019050818103600083015261539d81615041565b9050919050565b600060208201905081810360008301526153bd81615064565b9050919050565b60006020820190506153d96000830184615087565b92915050565b60006153e96153fa565b90506153f582826156e4565b919050565b6000604051905090565b600067ffffffffffffffff82111561541f5761541e615840565b5b6154288261586f565b9050602081019050919050565b600067ffffffffffffffff8211156154505761544f615840565b5b6154598261586f565b9050602081019050919050565b60008190508160005260206000209050919050565b600081519050919050565b600081519050919050565b600082825260208201905092915050565b600082825260208201905092915050565b600081905092915050565b60006154c982615659565b91506154d483615659565b9250827fffffffffffffffffffffffffffffffffffffffffffffffffffffffffffffffff03821115615509576155086157b3565b5b828201905092915050565b600061551f82615659565b915061552a83615659565b92508261553a576155396157e2565b5b828204905092915050565b600061555082615659565b915061555b83615659565b9250817fffffffffffffffffffffffffffffffffffffffffffffffffffffffffffffffff0483118215151615615594576155936157b3565b5b828202905092915050565b60006155aa82615659565b91506155b583615659565b9250828210156155c8576155c76157b3565b5b828203905092915050565b60006155de82615639565b9050919050565b60008115159050919050565b6000819050919050565b60007fffffffff0000000000000000000000000000000000000000000000000000000082169050919050565b6000615632826155d3565b9050919050565b600073ffffffffffffffffffffffffffffffffffffffff82169050919050565b6000819050919050565b600060ff82169050919050565b82818337600083830152505050565b60005b8381101561569d578082015181840152602081019050615682565b838111156156ac576000848401525b50505050565b600060028204905060018216806156ca57607f821691505b602082108114156156de576156dd615811565b5b50919050565b6156ed8261586f565b810181811067ffffffffffffffff8211171561570c5761570b615840565b5b80604052505050565b600061572082615659565b91507fffffffffffffffffffffffffffffffffffffffffffffffffffffffffffffffff821415615753576157526157b3565b5b600182019050919050565b600061576982615770565b9050919050565b600061577b82615880565b9050919050565b600061578d82615659565b915061579883615659565b9250826157a8576157a76157e2565b5b828206905092915050565b7f4e487b7100000000000000000000000000000000000000000000000000000000600052601160045260246000fd5b7f4e487b7100000000000000000000000000000000000000000000000000000000600052601260045260246000fd5b7f4e487b7100000000000000000000000000000000000000000000000000000000600052602260045260246000fd5b7f4e487b7100000000000000000000000000000000000000000000000000000000600052604160045260246000fd5b6000601f19601f8301169050919050565b60008160601b9050919050565b7f77616c6c657420616c7265616479206d696e74656420696e20746f6b656e206760008201527f6174656420706861736500000000000000000000000000000000000000000000602082015250565b7f4f776e61626c653a206e6577206f776e657220697320746865207a65726f206160008201527f6464726573730000000000000000000000000000000000000000000000000000602082015250565b7f7370656369616c206c69737420726f6f7420697320656d707479000000000000600082015250565b7f74686973206164647265737320646f6573206e6f7420636f6e7461696e20612060008201527f736b756c6c746f6f6e0000000000000000000000000000000000000000000000602082015250565b7f546f6b656e20646f6573206e6f74206578697374000000000000000000000000600082015250565b7f4e6f7420656e6f756768204e465473206c656674210000000000000000000000600082015250565b7f77616c6c657420616c7265616479206d696e74656420696e207075626c69632060008201527f7068617365000000000000000000000000000000000000000000000000000000602082015250565b7f43616e6e6f74207072656d696e74202d2074686973206164647265737320697360008201527f206e6f74206f6e2077686974656c6973746564206f7220686f6c64696e67207460208201527f686520726571756972656420616d6f756e74206f6620736b756c6c746f6f6e7360408201527f20746f6b656e7300000000000000000000000000000000000000000000000000606082015250565b7f77616c6c657420616c7265616479206d696e74656420696e2070726573616c6560008201527f2070686173650000000000000000000000000000000000000000000000000000602082015250565b7f2e6a736f6e000000000000000000000000000000000000000000000000000000600082015250565b7f4f776e61626c653a2063616c6c6572206973206e6f7420746865206f776e6572600082015250565b7f5068617365206e6f742073657420746f205055424c4943000000000000000000600082015250565b7f5265656e7472616e637947756172643a207265656e7472616e742063616c6c00600082015250565b7f5068617365206e6f742073657420746f205052455f53414c4520706861736500600082015250565b7f5068617365206e6f742073657420746f20534b554c4c5f544f4f4e5f484f4c4460008201527f4552535f4d494e54000000000000000000000000000000000000000000000000602082015250565b7f52656365697665727320616e64204944732061726520646966666572656e742060008201527f6c656e6774687300000000000000000000000000000000000000000000000000602082015250565b615ca2816155d3565b8114615cad57600080fd5b50565b615cb9816155e5565b8114615cc457600080fd5b50565b615cd0816155f1565b8114615cdb57600080fd5b50565b615ce7816155fb565b8114615cf257600080fd5b50565b615cfe81615627565b8114615d0957600080fd5b50565b60048110615d1957600080fd5b50565b615d2581615659565b8114615d3057600080fd5b50565b615d3c81615663565b8114615d4757600080fd5b5056fea2646970667358221220023477ca776c2e73c0a28a938a78bf311d1dd38a7cc5a0fc60dff69151d56dfe64736f6c63430008040033",
  "linkReferences": {},
  "deployedLinkReferences": {}
}